:100000000C9472000C948B000C948B000C948B005D
:100010000C948B000C948B000C948B000C948B0034
:100020000C948B000C948B000C948B000C948B0024
:100030000C948B000C948B000C948B000C948B0014
:100040000C948B000C948B000C948B000C948B0004
:100050000C948B000C948B000C948B000C948B00F4
:100060000C948B000C948B000C948B000C948B00E4
:100070000C948B000C948B000C948B000C948B00D4
:100080000C948B000C948B000C948B000C948B00C4
:100090000C948B000C948B000C948B000C948B00B4
:1000A0000C948B000C948B000C948B000C948B00A4
:1000B0000C948B000C948B000C948B000C948B0094
:1000C0000C948B000C948B000C948B000C948B0084
:1000D0000C948B000C948B000C948B000C948B0074
:1000E0000C948B0011241FBECFEFD1E2DEBFCDBF39
:1000F00000E00CBF12E0A0E0B2E0E8EFF3E000E0C7
:100100000BBF02C007900D92AA31B107D9F70E9428
:100110008E010C94FA010C940000229A2A9A239AD8
:100120002498259A8CB580618CBD8CB580648CBD7B
:1001300008958EBD0DB407FEFDCF08950C9499006F
:100140002A9885E00E94990080E00E9499002A9AEE
:100150008EB508952A9886E00E9499002A9A0895FB
:10016000CF93C82F2A9883E00E9499008C2F0E9479
:10017000990080E00E9499002A9A8EB5CF91089547
:10018000CF93DF93D82FC62F0E94AA002A9882E02F
:100190000E9499008D2F0E9499008C2F0E94990037
:1001A0002A9A0E94A00080FDFCCFDF91CF91089594
:1001B000E0ECF0E08081826080831092C5008FECDB
:1001C0008093C400E2ECF0E0808186608083E1EC03
:1001D000F0E08081806180838081886080830895E1
:1001E0008091C00087FFFCCF8091C6000895909158
:1001F000C00095FFFCCF8093C6000895CF93DF9396
:10020000EC018991882319F00E94F700FACFDF9161
:10021000CF910895CF92DF92EF92FF920F931F93A9
:10022000CF93DF93CDB7DEB72A970FB6F894DEBF32
:100230000FBECDBF6A017B018E010F5F1F4F2AE009
:10024000F80111922A95E9F70E94FE0083E192E0FD
:100250000E94FE004AE0B801C6010E94C501C80123
:100260000E94FE0087E192E00E94FE002A960FB6EF
:10027000F894DEBF0FBECDBFDF91CF911F910F91DC
:10028000FF90EF90DF90CF90089580E090E0089588
:10029000EF92FF920F931F93CF93DF9300D01F92A3
:1002A000CDB7DEB720E330E03A8329831C821B827E
:1002B0009E012F5F3F4F79018823A9F0F90120E0CB
:1002C00030E0AAE06A2F0E94B901905D9193A901E4
:1002D0004F5F5F4F882311F09A01F4CFF701E40FCD
:1002E000F51F108202C020E030E02F5F3F4F8701F2
:1002F000020F131FE016F10631F0F80182918F0111
:100300000E94F700F7CF0F900F900F900F90DF91A2
:10031000CF911F910F91FF90EF9008950E948D0053
:100320000E94D800C0E0D0E0BE01CE010E94C00013
:100330002196C038D105C1F7C0E0D0E0CE010E94BF
:10034000B0000E94480180E092E00E94FE002196E9
:10035000C038D10599F784E092E00E94FE002FEFAB
:1003600089E698E1215080409040E1F700C000000C
:10037000F2CF991B79E004C0991F961708F0961BDD
:10038000881F7A95C9F780950895BB274A3031F4C4
:10039000992322F4BDE2909581959F4F0C94D10151
:1003A000BB27FB015527AA27880F991FAA1FA4174F
:1003B00010F0A41B83955051B9F7A05DAA3308F043
:1003C000A95DA193009779F7B111B1931192CB0177
:1003D0000C94EA01DC01FC01672F71917723E1F7AE
:1003E000329704C07C916D9370836291AE17BF0702
:0803F000C8F30895F894FFCF53
:1003F8000A0D000048656C6C6F204156523A200A7D
:0A0408000D0000203D20000A000056
:00000001FF
