:100000000C9434000C943E000C943E000C94400080
:100010000C943E000C943E000C943E000C943E0068
:100020000C943E000C943E000C943E000C943E0058
:100030000C943E000C943E000C943E000C943E0048
:100040000C943E000C943E000C943E000C943E0038
:100050000C943E000C943E000C943E000C943E0028
:100060000C943E000C943E0011241FBECFEFD8E04C
:10007000DEBFCDBF0E9452000C9461000C940000C2
:100080001F920F920FB60F9211248F939F9395B1E9
:1000900088E0892785B99F918F910F900FBE0F90AF
:1000A0001F90189588E084B92B9A80916800816030
:1000B0008093680080916B00806280936B007894DD
:0600C000FFCFF894FFCF12
:00000001FF
