:100000000C9443000C944D000C944D000C94630030
:100010000C944D000C944D000C944D000C944D002C
:100020000C944D000C944D000C944D000C944D001C
:100030000C944D000C944D000C944D000C944D000C
:100040000C944D000C944D000C944D000C944D00FC
:100050000C944D000C944D000C944D000C944D00EC
:100060000C944D000C944D0005A84CCDB2D44EB963
:100070003836A9020C50B9918688083CA6AAAA2A4B
:10008000BE000000803F11241FBECFEFD8E0DEBFCE
:10009000CDBF0E9475000C947F030C9400008FEF7D
:1000A00084B98AB9E0EBF0E080818360808380814D
:1000B000806A8083E1EBF0E08081886080838081CA
:1000C0008460808308951F920F920FB60F921124BF
:1000D0008F939F9395B180E1892785B99F918F91E7
:1000E0000F900FBE0F901F9018950E944F002598FB
:1000F0002C9A8091680081608093680080916B00E9
:10010000806280936B00789400E010E0B801012ECB
:10011000000C880B990B0E94670120E030E044E35B
:1001200053E40E94C40028E335E149E450E40E940E
:10013000F8010E94650220E030E04FE753E40E949E
:10014000F8016B017C019F770E943601C62F20E0E9
:1001500030E0A901C701B6010E94F30187FD04C088
:100160005B9A2B98C09502C05B982B9AC093B30002
:100170000F5F1F4F2FEF89EF90E02150804090409C
:10018000E1F700C00000C2CF0E94D8000C94B90172
:100190000E94B20158F00E94AB0140F029F45F3F89
:1001A00029F00C94A20151110C94ED010C94A801BA
:1001B0000E94CA0168F39923B1F3552391F3951B6B
:1001C000550BBB27AA2762177307840738F09F5F78
:1001D0005F4F220F331F441FAA1FA9F335D00E2EE5
:1001E0003AF0E0E832D091505040E695001CCAF752
:1001F0002BD0FE2F29D0660F771F881FBB1F261715
:1002000037074807AB07B0E809F0BB0B802DBF01EB
:10021000FF2793585F4F3AF09E3F510578F00C94BA
:10022000A2010C94ED015F3FE4F3983ED4F3869570
:1002300077956795B795F7959F5FC9F7880F911DDB
:100240009695879597F90895E1E0660F771F881FC7
:10025000BB1F621773078407BA0720F0621B730B7A
:10026000840BBA0BEE1F88F7E09508950E94D20127
:1002700088F09F5798F0B92F9927B751B0F0E1F067
:10028000660F771F881F991F1AF0BA95C9F714C017
:10029000B13091F00E94EC01B1E008950C94EC01B2
:1002A000672F782F8827B85F39F0B93FCCF3869550
:1002B00077956795B395D9F73EF4909580957095AD
:1002C00061957F4F8F4F9F4F0895E89409C097FB2A
:1002D0003EF490958095709561957F4F8F4F9F4F1D
:1002E0009923A9F0F92F96E9BB279395F695879561
:1002F00077956795B795F111F8CFFAF4BB0F11F424
:1003000060FF1BC06F5F7F4F8F4F9F4F16C08823CA
:1003100011F096E911C0772321F09EE8872F762F00
:1003200005C0662371F096E8862F70E060E02AF041
:100330009A95660F771F881FDAF7880F969587952D
:1003400097F9089597F99F6780E870E060E0089555
:100350009FEF80EC089500240A94161617061806DD
:100360000906089500240A941216130614060506B9
:100370000895092E0394000C11F4882352F0BB0F4A
:1003800040F4BF2B11F460FF04C06F5F7F4F8F4FAD
:100390009F4F089557FD9058440F551F59F05F3FE8
:1003A00071F04795880F97FB991F61F09F3F79F097
:1003B00087950895121613061406551FF2CF469519
:1003C000F1DF08C0161617061806991FF1CF86959B
:1003D0007105610508940895E894BB27662777277F
:1003E000CB0197F908950E946D0208F48FEF0895EC
:1003F0000E940B020C94B9010E94AB0138F00E94DC
:10040000B20120F0952311F00C94A2010C94A801E4
:1004100011240C94ED010E94CA0170F3959FC1F361
:10042000950F50E0551F629FF001729FBB27F00DA2
:10043000B11D639FAA27F00DB11DAA1F649F6627F7
:10044000B00DA11D661F829F2227B00DA11D621F46
:10045000739FB00DA11D621F839FA00D611D221F00
:10046000749F3327A00D611D231F849F600D211DE4
:10047000822F762F6A2F11249F5750409AF0F1F067
:1004800088234AF0EE0FFF1FBB1F661F771F881FD0
:1004900091505040A9F79E3F510580F00C94A20165
:1004A0000C94ED015F3FE4F3983ED4F38695779585
:1004B0006795B795F795E7959F5FC1F7FE2B880F76
:1004C000911D9695879597F908959F930E949302A1
:1004D0000F9007FCEE5F0C94BC02990F0008550FBB
:1004E000AA0BE0E8FEEF16161706E807F907C0F0BA
:1004F00012161306E407F50798F0621B730B840BC2
:10050000950B39F40A2661F0232B242B252B21F49B
:1005100008950A2609F4A140A6958FEF811D811D3B
:1005200008950C94A8010E94D201D8F3E894E0E069
:10053000BB279F57F0F02AED3FE049EC06C0EE0FD5
:10054000BB0F661F771F881F28F0B23A6207730738
:10055000840728F0B25A620B730B840BE3959A95CB
:1005600072F7803830F49A95BB0F661F771F881F8B
:10057000D2F790480C943803EF93E0FF07C0A2EA4B
:100580002AED3FE049EC5FEB0E94E1020E94B901D5
:100590000F90039401FC9058E8E6F0E00C944403BB
:1005A0000E94AB0138F00E94B20120F039F49F3F65
:1005B00019F426F40C94A8010EF4E095E7FB0C94D2
:1005C000A201E92F0E94CA0158F3BA176207730704
:1005D0008407950720F079F4A6F50C94EC010EF44D
:1005E000E0950B2EBA2FA02D0B01B90190010C0143
:1005F000CA01A0011124FF27591B99F0593F50F45B
:10060000503E68F11A16F040A22F232F342F4427B2
:10061000585FF3CF469537952795A795F0405395AA
:10062000C9F77EF41F16BA0B620B730B840BBAF07A
:100630009150A1F0FF0FBB1F661F771F881FC2F7E5
:100640000EC0BA0F621F731F841F48F487957795F9
:100650006795B795F7959E3F08F0B0CF9395880FB3
:1006600008F09927EE0F9795879508959F3F31F0F1
:10067000915020F4879577956795B795880F911DD0
:100680009695879597F908959F938F937F936F938E
:10069000FF93EF939B01AC010E94F801EF91FF9152
:1006A0000E9458032F913F914F915F910C94F80154
:1006B000DF93CF931F930F93FF92EF92DF927B0113
:1006C0008C01689406C0DA2EEF010E940B02FE0135
:1006D000E894A5912591359145915591A6F3EF01A7
:1006E0000E94E102FE019701A801DA9469F7DF9008
:1006F000EF90FF900F911F91CF91DF910895F894A3
:02070000FFCF29
:00000001FF
