:100000000C9472000C94B4030C94CB030C949300E6
:100010000C9493000C9493000C9493000C94930014
:100020000C9493000C9493000C9493000C94930004
:100030000C9493000C9493000C9493000C949300F4
:100040000C9493000C9493000C9493000C949300E4
:100050000C9493000C9493000C9493000C949300D4
:100060000C9493000C9493000C9493000C949300C4
:100070000C9493000C9493000C9493000C949300B4
:100080000C9493000C9493000C9493000C949300A4
:100090000C9493000C9493000C9493000C94930094
:1000A0000C9493000C9493000C9493000C94930084
:1000B0000C9493000C9493000C9493000C94930074
:1000C0000C9493000C9493000C9493000C94930064
:1000D0000C9493000C9493000C9493000C94930054
:1000E0000C94930011241FBECFEFD1E2DEBFCDBF31
:1000F00000E00CBF12E0A0E0B2E0E8EBF4E100E0C9
:100100000BBF02C007900D92A634B107D9F722E0C9
:10011000A6E4B2E001C01D92AE34B207E1F70E943E
:100120003E050C945A0A0C940000A0E8B0E08C91B3
:1001300080688C938C9180628C93E1E8F0E0808100
:10014000806180838081886080838C9182608C93C1
:1001500080818460808380E284B981EE94E0909312
:100160008700809386000895CF93DF9361307105F7
:10017000F9F4EC010E949500C230D10581F02CF415
:100180002197B1F486E791E00FC0C330D10551F05B
:10019000249771F4109289001092880009C08DEEA6
:1001A00092E002C084E694E09093890080938800F6
:1001B000DF91CF910895CF93DF9361307105B9F44A
:1001C000EC010E949500C230D10541F0C330D10549
:1001D00041F0219761F486E791E005C08DEE92E051
:1001E00002C084E694E09093890080938800DF91B8
:1001F000CF910895299A8FE99FE00197F1F700C008
:10020000000029988FE99FE00197F1F700C00000F6
:100210000895289A8BB90C94FA0028988BB90C94FD
:10022000FA0081E00E940D018FE39FE10197F1F751
:1002300000C0000008952FEF80E792E02150804039
:100240009040E1F700C000008FEF8AB984B183606D
:1002500084B988E30E940D018CE00E940D010E9488
:10026000110186E00C940D010F931F93CF938C0125
:10027000C0E0F801EC0FF11D8081882321F00E947D
:100280000901CF5FF6CFCF911F910F910895817033
:100290006F7090E4899F600D1124862F80580C9414
:1002A0000D010F931F93CF93DF93EC018B010E94FD
:1002B0001B0184E092E00E943401CE0162E070E014
:1002C0000E944D05019729F40E94110180E192E0FE
:1002D00004C00E9411018CE192E00E9434010130BF
:1002E000110501F5C230D10591F03CF42197D1F40C
:1002F0000E94110186E292E013C0C330D10561F083
:10030000249781F40E94110186E392E009C00E94C3
:1003100011018AE292E004C00E94110181E392E09F
:100320000E943401DF91CF911F910F910895ECE766
:10033000F0E0808180648083808181608083EAE74F
:10034000F0E0808180688083808184608083808108
:1003500081608083808180618083808180648083EC
:10036000819A689A089580917A0084FFFCCF8091E9
:100370007800909179000895CF93DF93EB019F93DC
:100380008F938BE392E09F938F93DF936F930E9401
:1003900061071C820F900F900F900F900F900F909D
:1003A000DF91CF910895CF93DF9300D01F921F92DA
:1003B000CDB7DEB70E9488040E9497010E94B30166
:1003C0008C01BE016F5F7F4F0E94BC01CE01019680
:1003D0000E94AE0480E492E00E94AE04093512400F
:1003E00014F0709A01C070988FEF99E628E181505F
:1003F00090402040E1F700C00000E0CFA0EBB0E06B
:100400008C9180688C938C9180628C93E1EBF0E00E
:100410008081806180838081886080838C9182600C
:100420008C93808184608083249A81EE94E0909301
:100430008700809386006091000270910102809194
:100440000202909103022AE037ED43EA5BE30E9447
:10045000AB0620E030E24CE954E40E94AB060E9477
:10046000E9056093B30008958130910509F0A1C0BA
:100470000E94FE01609100027091010280910202CF
:10048000909103022DEC3CEC4CEC5DE30E94760570
:100490006093000270930102809302029093030222
:1004A000609100027091010280910202909103021A
:1004B0002AE037ED43EA5BE30E94AB0620E030E23E
:1004C0004CE954E40E94AB060E94E9056093B30036
:1004D0002FEF8AE693E0215080409040E1F700C082
:1004E00000006091000270910102809102029091DF
:1004F000030220E030E048EC51E40E94A606181602
:100500000CF0B8CF80E090E0A8ECB1E4809300025A
:1005100090930102A0930202B09303026091000243
:1005200070910102809102029091030220E030E07C
:1005300040EA50E40E94A60618160CF09BCF60918A
:1005400000027091010280910202909103022AE060
:1005500037ED43EA5BE30E94AB0620E030E24CE972
:1005600054E40E94AB060E94E905709389006093F1
:1005700088002FEF8AE693E0215080409040E1F719
:1005800000C000006091000270910102809102029F
:10059000909103022DEC3CEC4CEC5DE30E94750560
:1005A0006093000270930102809302029093030211
:1005B000B5CF029711F41092B3000895229A2A9AA7
:1005C000239A2498259A8CB580618CBD8CB5806463
:1005D0008CBD08958EBD0DB407FEFDCF08950C941B
:1005E000EA022A9885E00E94EA0280E00E94EA027C
:1005F0002A9A8EB508952A9886E00E94EA022A9ADD
:100600000895CF93C82F2A9883E00E94EA028C2F86
:100610000E94EA0280E00E94EA022A9A8EB5CF91F7
:100620000895CF93DF93D82FC62F0E94FB022A98FC
:1006300082E00E94EA028D2F0E94EA028C2F0E9423
:10064000EA022A9A0E94F10280FDFCCFDF91CF914D
:100650000895E9E6F0E0808182608083808188608F
:100660008083E89AE99A789408956091460270919F
:10067000470280914802909149020E94B400609123
:1006800046027091470280914C0290914D020C9469
:10069000340280914A0290914B020E941B04809187
:1006A0004A0290914B020C94D301CF93DF93809137
:1006B00048029091490262E070E00E944D05019766
:1006C00029F5C0914C02D0914D02C130D105F1F411
:1006D00060914602709147028091480290914902D0
:1006E0000E945101109249021092480210924D024C
:1006F00010924C02D0934702C093460210924B02D4
:1007000010924A02DF91CF910C94350380914802F8
:100710009091490280FD25C0C0914C02D0914D02BC
:10072000C130D105F1F46091460270914702809189
:100730004802909149020E94510110924902109280
:10074000480210924D0210924C02D0934B02C0937B
:100750004A021092470210924602DF91CF910C9408
:100760004903DF91CF9108951F920F920FB60F9218
:1007700011248F939F938091480290914902019692
:1007800090934902809348029F918F910F900FBEE2
:100790000F901F9018951F920F920FB60F92112471
:1007A0008F939F9380914C0290914D02019690936C
:1007B0004D0280934C029F918F910F900FBE0F902E
:1007C0001F901895ECE7F0E0808180648083EAE771
:1007D000F0E0808180688083808184608083808174
:1007E0008160808380818061808380818064808358
:1007F00081E080BB089580917A0084FFFCCF8091D6
:100800007800909179000895CF93DF93EB019F9347
:100810008F938BE392E09F938F93DF936F930E946C
:1008200061071C820F900F900F900F900F900F9008
:10083000DF91CF910895EF92FF920F931F93CF9383
:10084000DF9300D01F921F92CDB7DEB7019709F05A
:1008500053C00E9488040E94E2030E94FB03BC0173
:10086000990F880B990B0E941A0620E030E040EAAD
:1008700050E40E94AB0620E030E048EC52E40E94D5
:10088000AB0620E030E040E85AE30E94AB060E944D
:10089000E205DC01CB017C01BE016F5F7F4F0E944E
:1008A0000404CE0101960E94AE0480E492E00E940E
:1008B000AE042CE1E216F1045CF08DE1E816F104DF
:1008C00051F09FE1E916F10444F003E010E005C0A7
:1008D00001E010E002C002E010E061E070E0C80159
:1008E0000E94DB002FEF89E698E121508040904084
:1008F000E1F700C00000B1CF0F900F900F900F9064
:100900000F90DF91CF911F910F91FF90EF9008957D
:10091000E0ECF0E08081826080831092C5008FEC73
:100920008093C400E2ECF0E0808186608083E1EC9B
:10093000F0E0808180618083808188608083089579
:100940008091C00087FFFCCF8091C60008959091F0
:10095000C00095FFFCCF8093C6000895CF93DF932E
:10096000EC018991882319F00E94A704FACFDF9146
:10097000CF910895CF92DF92EF92FF920F931F9342
:10098000CF93DF93CDB7DEB72A970FB6F894DEBFCB
:100990000FBECDBF6A017B018E010F5F1F4F2AE0A2
:1009A000F80111922A95E9F70E94AE0482E492E0E0
:1009B0000E94AE044AE0B801C6010E943C07C8018B
:1009C0000E94AE0480E492E00E94AE042A960FB624
:1009D000F894DEBF0FBECDBFDF91CF911F910F9175
:1009E000FF90EF90DF90CF90089580E090E0089521
:1009F000EF92FF920F931F93CF93DF9300D01F923C
:100A0000CDB7DEB720E330E03A8329831C821B8216
:100A10009E012F5F3F4F79018823A9F0F90120E063
:100A200030E0AAE06A2F0E944105905D9193A901F0
:100A30004F5F5F4F882311F09A01F4CFF701E40F65
:100A4000F51F108202C020E030E02F5F3F4F87018A
:100A5000020F131FE016F10631F0F80182918F01A9
:100A60000E94A704F7CF0F900F900F900F90DF9187
:100A7000CF911F910F91FF90EF9008950E94550321
:100A8000FDCF991B79E004C0991F961708F0961BBB
:100A9000881F7A95C9F78095089597FB072E16F45D
:100AA000009407D077FD09D00E94610507FC05D0AE
:100AB0003EF4909581959F4F0895709561957F4F75
:100AC0000895AA1BBB1B51E107C0AA1FBB1FA61795
:100AD000B70710F0A61BB70B881F991F5A95A9F7E7
:100AE00080959095BC01CD0108955058BB27AA2749
:100AF0000E948D050C946C060E945E0638F00E94E0
:100B0000650620F039F49F3F19F426F40C945B0637
:100B10000EF4E095E7FB0C945506E92F0E947D0644
:100B200058F3BA17620773078407950720F079F422
:100B3000A6F50C949F060EF4E0950B2EBA2FA02D6F
:100B40000B01B90190010C01CA01A0011124FF277A
:100B5000591B99F0593F50F4503E68F11A16F04075
:100B6000A22F232F342F4427585FF3CF4695379574
:100B70002795A795F0405395C9F77EF41F16BA0B39
:100B8000620B730B840BBAF09150A1F0FF0FBB1FE7
:100B9000661F771F881FC2F70EC0BA0F621F731F30
:100BA000841F48F4879577956795B795F7959E3F8D
:100BB00008F0B0CF9395880F08F09927EE0F97951E
:100BC000879508950E94E9056894B1110C94A006D8
:100BD00008950E94850688F09F5798F0B92F9927AD
:100BE000B751B0F0E1F0660F771F881F991F1AF018
:100BF000BA95C9F714C0B13091F00E949F06B1E0D8
:100C000008950C949F06672F782F8827B85F39F0D6
:100C1000B93FCCF3869577956795B395D9F73EF4B0
:100C200090958095709561957F4F8F4F9F4F089558
:100C3000E89409C097FB3EF4909580957095619576
:100C40007F4F8F4F9F4F9923A9F0F92F96E9BB272C
:100C50009395F695879577956795B795F111F8CFA8
:100C6000FAF4BB0F11F460FF1BC06F5F7F4F8F4F13
:100C70009F4F16C0882311F096E911C0772321F009
:100C80009EE8872F762F05C0662371F096E8862FA1
:100C900070E060E02AF09A95660F771F881FDAF7F8
:100CA000880F9695879597F9089597F99F6780E83B
:100CB00070E060E008959FEF80EC089500240A94AE
:100CC0001616170618060906089500240A94121627
:100CD0001306140605060895092E0394000C11F45A
:100CE000882352F0BB0F40F4BF2B11F460FF04C007
:100CF0006F5F7F4F8F4F9F4F089557FD9058440F60
:100D0000551F59F05F3F71F04795880F97FB991F6A
:100D100061F09F3F79F08795089512161306140627
:100D2000551FF2CF4695F1DF08C0161617061806B4
:100D3000991FF1CF86957105610508940895E8948F
:100D4000BB2766277727CB0197F908950E941807DC
:100D500008F48FEF08950E94BE060C946C060E9462
:100D60005E0638F00E94650620F0952311F00C9481
:100D700055060C945B0611240C94A0060E947D0677
:100D800070F3959FC1F3950F50E0551F629FF001DE
:100D9000729FBB27F00DB11D639FAA27F00DB11DF7
:100DA000AA1F649F6627B00DA11D661F829F222780
:100DB000B00DA11D621F739FB00DA11D621F839F07
:100DC000A00D611D221F749F3327A00D611D231FDD
:100DD000849F600D211D822F762F6A2F11249F572B
:100DE00050409AF0F1F088234AF0EE0FFF1FBB1F2E
:100DF000661F771F881F91505040A9F79E3F5105ED
:100E000080F00C9455060C94A0065F3FE4F3983EE6
:100E1000D4F3869577956795B795F795E7959F5F96
:100E2000C1F7FE2B880F911D9695879597F9089528
:100E3000990F0008550FAA0BE0E8FEEF16161706EB
:100E4000E807F907C0F012161306E407F50798F053
:100E5000621B730B840B950B39F40A2661F0232B6C
:100E6000242B252B21F408950A2609F4A140A695E8
:100E70008FEF811D811D0895BB274A3031F49923DE
:100E800022F4BDE2909581959F4F0C944807BB27B3
:100E9000FB015527AA27880F991FAA1FA41710F036
:100EA000A41B83955051B9F7A05DAA3308F0A95D42
:100EB000A193009779F7B111B1931192CB010C94E2
:100EC000B0090F931F93CF93DF93CDB7DEB72E9763
:100ED0000FB6F894DEBF0FBECDBF0E891F8986E026
:100EE0008C831A8309838FEF9FE79E838D83AE01E6
:100EF000465E5F4F688D798DCE0101960E94900706
:100F0000EF81F885E00FF11F10822E960FB6F8944E
:100F1000DEBF0FBECDBFDF91CF911F910F9108951E
:100F20002F923F924F925F926F927F928F929F92F9
:100F3000AF92BF92CF92DF92EF92FF920F931F93E7
:100F4000CF93DF93CDB7DEB72B970FB6F894DEBF04
:100F50000FBECDBF6C017B018A01FC011782168296
:100F6000838181FFCCC1CE0101963C01F6019381C2
:100F7000F70193FD859193FF81917F01882309F407
:100F8000BAC1853239F493FD859193FF81917F0138
:100F9000853229F4B60190E00E94C009E7CF912C78
:100FA000212C312CFFE1F315D8F08B3279F038F495
:100FB000803279F08332A1F4232D20611DC08D325F
:100FC00061F0803369F4232D216016C0832D826087
:100FD000382EE32DE4603E2E2AC0F32DF8601DC0AC
:100FE00037FC2DC020ED280F2A3040F08E32B9F4A6
:100FF00036FC81C1232D2064322E19C036FE06C076
:101000008AE0989E200D1124922E11C0EAE02E9EB7
:10101000200D1124222EF32DF0623F2E08C08C36B5
:1010200021F4832D8068382E02C0883641F4F70100
:1010300093FD859193FF81917F018111B3CF982F0B
:101040009F7D9554933028F40C5F1F4F9FE3998345
:101050000DC0833631F0833771F0833509F059C004
:1010600021C0F801808189830E5F1F4F88248394FB
:10107000912C530113C02801F2E04F0E511CF801CE
:10108000A080B18036FE03C0692D70E002C06FEF12
:101090007FEFC5010E94A5094C018201F32DFF7766
:1010A0003F2E16C0280122E0420E511CF801A080FC
:1010B000B18036FE03C0692D70E002C06FEF7FEF94
:1010C000C5010E949A094C01F32DF0683F2E820160
:1010D00033FC1BC0822D90E088169906B0F4B6014F
:1010E00080E290E00E94C0092A94F4CFF50137FC19
:1010F000859137FE81915F01B60190E00E94C009A1
:1011000021102A9421E0821A91088114910471F728
:10111000E8C0843611F0893641F5F80137FE07C082
:1011200060817181828193810C5F1F4F08C0608153
:101130007181072E000C880B990B0E5F1F4FF32D4A
:10114000FF763F2E97FF09C0909580957095619529
:101150007F4F8F4F9F4FF0683F2E2AE030E0A30172
:101160000E94FC09882E861845C0853731F4232D4E
:101170002F7EB22E2AE030E025C0932D997FB92E24
:101180008F36C1F018F4883579F0B5C0803719F082
:10119000883721F0B0C0E92FE061BE2EB4FE0DC04B
:1011A000FB2DF460BF2E09C034FE0AC0292F266033
:1011B000B22E06C028E030E005C020E130E002C0D9
:1011C00020E132E0F801B7FE07C0608171818281C1
:1011D00093810C5F1F4F06C06081718180E090E0B9
:1011E0000E5F1F4FA3010E94FC09882E8618FB2D5D
:1011F000FF773F2E36FE0DC0232D2E7FA22E8914A1
:1012000058F434FE0BC032FC09C0832D8E7EA82E0C
:1012100005C0B82CA32C03C0B82C01C0B92CA4FE67
:101220000FC0FE01E80DF11D8081803321F49A2D5D
:10123000997EA92E09C0A2FE06C0B394B39404C03F
:101240008A2D867809F0B394A3FC11C0A0FE06C0D5
:10125000B21488F4280C922C9B180EC0B21460F4BF
:10126000B60180E290E00E94C009B394F7CFB214B7
:1012700018F42B1802C0982C212CA4FE10C0B60123
:1012800080E390E00E94C009A2FE17C0A1FC03C049
:1012900088E790E002C088E590E0B6010CC08A2D96
:1012A000867859F0A1FE02C08BE201C080E2A7FC63
:1012B0008DE2B60190E00E94C009891438F4B601AD
:1012C00080E390E00E94C0099A94F7CF8A94F301DA
:1012D000E80DF11D8081B60190E00E94C0098110E7
:1012E000F5CF222009F442CEB60180E290E00E94C0
:1012F000C0092A94F6CFF6018681978102C08FEF4C
:101300009FEF2B960FB6F894DEBF0FBECDBFDF91D7
:10131000CF911F910F91FF90EF90DF90CF90BF90F2
:10132000AF909F908F907F906F905F904F903F9085
:101330002F900895FC010590615070400110D8F77E
:10134000809590958E0F9F1F0895FC01615070400D
:1013500001900110D8F7809590958E0F9F1F0895EA
:10136000DC01FC01672F71917723E1F7329704C00C
:101370007C916D9370836291AE17BF07C8F3089597
:101380000F931F93CF93DF93FB01238121FD03C0B4
:101390008FEF9FEF2CC022FF16C04681578124811A
:1013A00035814217530744F4A081B1819D012F5F1D
:1013B0003F4F318320838C93268137812F5F3F4FAE
:1013C0003783268314C08B01EC01FB010084F18577
:1013D000E02D1995892BE1F6D80116968D919C91F7
:1013E0001797019617969C938E931697CE01DF91CF
:1013F000CF911F910F910895FA01AA27283051F13A
:10140000203181F1E8946F936E7F6E5F7F4F8F4F35
:101410009F4FAF4FB1E03ED0B4E03CD0670F781F94
:10142000891F9A1FA11D680F791F8A1F911DA11D79
:101430006A0F711D811D911DA11D20D009F46894B2
:101440003F912AE0269F11243019305D3193DEF65A
:10145000CF010895462F4770405D4193B3E00FD010
:10146000C9F7F6CF462F4F70405D4A3318F0495DFB
:1014700031FD4052419302D0A9F7EACFB4E0A695DE
:101480009795879577956795BA95C9F70097610500
:10149000710508959B01AC010A2E06945795479556
:1014A00037952795BA95C9F7620F731F841F951F4B
:0814B000A01D0895F894FFCF80
:1014B8000000A04053656C656374204D6F6465003F
:1014C8004D616E75616C204D6F6465006175746F58
:1014D800204D6F6465004C4F57004D4944444C45BE
:1014E80000484947480053544F50002530346400A1
:0614F8000A00203D200067
:00000001FF
