:100000000C9434000C943E000C943E000C943E0082
:100010000C943E000C943E000C943E000C943E0068
:100020000C943E000C943E000C943E000C943E0058
:100030000C943E000C943E000C943E000C943E0048
:100040000C943E000C943E000C943E000C943E0038
:100050000C943E000C943E000C943E000C943E0028
:100060000C943E000C943E0011241FBECFEFD8E04C
:10007000DEBFCDBF0E9465000C94A2000C9400006E
:100080008FB78F778FBFE0E8F0E080818068808352
:10009000808180628083808182608083E1E8F0E0FB
:1000A000808180618083808188608083808182609C
:1000B00080838FE39CE9909387008093860082E0A1
:1000C00084B98FB780688FBF08950E94400040EDCB
:1000D00057E088EB9BE020EA3FE050938900409393
:1000E00088006FEF73EDE0E361507040E040E1F7AE
:1000F00000C0000090938900809388006FEF73ED3B
:10010000E0E361507040E040E1F700C00000309350
:100110008900209388006FEF73EDE0E36150704039
:10012000E040E1F700C000009093890080938800D0
:100130006FEF73EDE0E361507040E040E1F700C025
:080140000000CBCFF894FFCFC3
:00000001FF
