:100000000C9434000C9449000C9449000C94490061
:100010000C9449000C9449000C9449000C9449003C
:100020000C9449000C9449000C9449000C9449002C
:100030000C9449000C9449000C9449000C9449001C
:100040000C9449000C9449000C9449000C9449000C
:100050000C9449000C9449000C9449000C944900FC
:100060000C9449000C94490011241FBECFEFD8E036
:10007000DEBFCDBF11E0A0E0B1E0ECE9F1E002C0ED
:1000800005900D92AE30B107D9F70E94A2000C94F2
:10009000CC000C940000299A8FE99FE00197F1F7BA
:1000A00000C0000029988FE99FE00197F1F700C098
:1000B00000000895289A8BB90C944B0028988BB9AE
:1000C0000C944B0081E00E945E008FE39FE101975A
:1000D000F1F700C0000008952FEF80E792E0215073
:1000E00080409040E1F700C000008FEF8AB984B1F2
:1000F000836084B988E30E945E008CE00E945E0009
:100100000E94620086E00C945E000F931F93CF93D1
:100110008C01C0E0F801EC0FF11D8081882321F0F3
:100120000E945A00CF5FF6CFCF911F910F91089593
:1001300081706F7090E4899F600D1124862F805824
:100140000C945E000E946C0080E091E00E948500AB
:100150002FEF83ED90E3215080409040E1F700C005
:1001600000000E94620080E80E945E0081E30E941D
:100170005A0085E80E945E0082E30E945A0080ECEB
:100180000E945E0083E30E945A0085EC0E945E009C
:0C01900084E30E945A00FFCFF894FFCFD8
:0E019C0048656C6C6F20576F726C6421000018
:00000001FF
